:1000000055C00000B7C00000F3C000002FC10000C1
:100010006BC1000066C0000064C0000062C0000048
:1000200060C000005EC000005CC000005AC000005C
:1000300058C0000056C0000054C0000052C000006C
:1000400050C000004EC000004CC000004AC000007C
:1000500048C0000059C0000044C0000042C0000079
:1000600040C000003EC000003CC000003AC000009C
:1000700038C0000036C0000034C0000032C00000AC
:1000800030C000002EC000002CC000002AC00000BC
:1000900028C0000026C0000024C0000022C00000CC
:1000A00020C000001EC000001CC0000011241FBEA4
:1000B000CFEFDAE0DEBFCDBF11E0A0E0B1E0E0E6D7
:1000C000F7E002C005900D92A431B107D9F721E005
:1000D000A4E1B1E001C01D92A332B207E1F7E6D17D
:1000E0003DC38ECFE9E6F0E080818A6A80838DB3DC
:1000F0008F608DBB82E084BD83E085BD16BC99EF27
:1001000097BD80936E0008951F920F920FB60F92C5
:1001100011248F939F938091210190912201019648
:1001200090932201809321019F918F910F900FBE98
:100130000F901F901895109222011092210120918A
:1001400021013091220128173907C8F30895CF9370
:10015000DF93C5E6D0E0219751F05E9A81E090E010
:10016000EADF8BB18BB981E090E0E5DFF4CFDF917E
:10017000CF9108951F920F920FB60F9211242F93D3
:100180003F934F935F936F937F938F939F93AF931F
:10019000BF93EF93FF938091140190911501892BE8
:1001A000B1F0809120018F77809320018091200110
:1001B00085B980911E0190911F01019690931F01B6
:1001C00080931E01C4DF1092150110921401FF915B
:1001D000EF91BF91AF919F918F917F916F915F91BF
:1001E0004F913F912F910F900FBE0F901F90189538
:1001F0001F920F920FB60F9211242F933F934F939C
:100200005F936F937F938F939F93AF93BF93EF937E
:10021000FF938091160190911701892BB1F0809185
:1002200020018F7B809320018091200185B98091EE
:100230001E0190911F01019690931F0180931E0152
:1002400086DF1092170110921601FF91EF91BF9176
:10025000AF919F918F917F916F915F914F913F915E
:100260002F910F900FBE0F901F9018951F920F9215
:100270000FB60F9211242F933F934F935F936F9379
:100280007F938F939F93AF93BF93EF93FF9380914F
:10029000180190911901892BB1F0809120018F7D77
:1002A000809320018091200185B980911E01909159
:1002B0001F01019690931F0180931E0148DF109249
:1002C000190110921801FF91EF91BF91AF919F9189
:1002D0008F917F916F915F914F913F912F910F90EF
:1002E0000FBE0F901F9018951F920F920FB60F928E
:1002F00011242F933F934F935F936F937F938F932B
:100300009F93AF93BF93EF93FF9380911A019091C6
:100310001B01892BB1F0809120018F7E80932001F9
:100320008091200185B980911E0190911F01019655
:1003300090931F0180931E010ADF10921B011092FF
:100340001A01FF91EF91BF91AF919F918F917F9192
:100350006F915F914F913F912F910F900FBE0F9032
:100360001F9018959C01220F331FF901EC5EFE4F80
:1003700041E050E0518340834091100150911101C0
:10038000F901EA5FFE4F518340838130910581F08E
:1003900034F4892BB1F480912001806810C0823040
:1003A000910551F0039769F480912001806107C0A5
:1003B00080912001806403C080912001806280933D
:1003C00020018091200185B908958130910589F03F
:1003D00034F40097B9F4209120012F7711C08230B6
:1003E000910559F08330910569F4209120012F7E09
:1003F00007C0209120012F7B03C0209120012F7D79
:100400002093200120911C0130911D012F5F3F4F4F
:1004100030931D0120931C01880F991FFC01EC5E95
:10042000FE4F118210828091200185B9089580913C
:1004300012019091130183309105B1F038F48130AD
:10044000910559F00297A1F4469811C085309105A5
:1004500059F028F0069759F00BC0469A09C07698D3
:1004600088B1806C88B904C04798769A01C0479AD1
:100470008091120190911301019690931301809342
:10048000120180910E0190910F01885C9109909367
:100490000F0180930E018091100190911101885CF1
:1004A000910990931101809310010895F8948FEFB2
:1004B00084B915B887B1806C87B96E9A18B81EB820
:1004C000569A10DE789488EB9BE035DEDCD064E051
:1004D00070E07FD047DF04E110E081E090E02BDEA8
:1004E000C0E0D0E0FE01EE0FFF1FDF01AC5EBE4FAB
:1004F0008D919C91892B69F0EA5FFE4F80819181FB
:1005000001979183808380819181892B11F4CE01A1
:100510005CDF2196C430D10529F7809104019091C8
:1005200005010197909305018093040180910401D6
:1005300090910501892BA9F4A6D0BE014AD0FC01F7
:10054000EE0FFF1FEC5EFE4F20813181232B09F45B
:1005500009DF80910E0190910F0190930501809326
:10056000040180911E0190911F01892BC9F0809197
:100570001E0190911F01B80118D0892B89F4809138
:100580001E0190911F018D38910550F480911E013C
:1005900090911F01019690931F0180931E0147DFE8
:1005A00080911C0190911D0198CFAA1BBB1B51E1AA
:1005B00007C0AA1FBB1FA617B70710F0A61BB70BD3
:1005C000881F991F5A95A9F780959095BC01CD0178
:1005D000089597FB072E16F4009406D077FD08D0F7
:1005E000E4DF07FC05D03EF4909581959F4F089578
:1005F000709561957F4F08958F929F92AF92BF92B1
:10060000CF92DF92EF92FF92CF93DF93EC0168815C
:1006100079818A819B81611571058105910521F49C
:1006200064E279ED8BE597E02DE133EF41E050E0B6
:1006300038D049015A019B01AC01A7EAB1E44DD081
:100640006B017C01ACEEB4EFA501940152D0DC014A
:10065000CB018C0D9D1DAE1DBF1DB7FF03C00197C3
:10066000A109B04888839983AA83BB839F77DF91D0
:10067000CF91FF90EF90DF90CF90BF90AF909F9081
:100680008F900895B9CF80E091E0B6CFA0E0B0E0C0
:100690008093000190930101A0930201B0930301A4
:1006A0000895052E97FB16F400940FD057FD05D042
:1006B00024D007FC02D046F408C0509540953095F0
:1006C00021953F4F4F4F5F4F0895909580957095BE
:1006D00061957F4F8F4F9F4F089531D0A59F900D0B
:1006E000B49F900DA49F800D911D11240895B7FF14
:1006F000F4CFF3DF821B930B0895A1E21A2EAA1BFD
:10070000BB1BFD010DC0AA1FBB1FEE1FFF1FA217C1
:10071000B307E407F50720F0A21BB30BE40BF50BBE
:10072000661F771F881F991F1A9469F76095709547
:10073000809590959B01AC01BD01CF010895A29FCA
:10074000B001B39FC001A39F700D811D1124911DA5
:10075000B29F700D811D1124911D0895F894FFCF53
:1007600001000000DC05DC05DC05DC05DC05DC0542
:04077000DC050100A3
:00000001FF
