:1000000055C00000E1C0000004C1000027C100008D
:100010004AC1000066C0000064C0000062C0000069
:1000200060C000005EC000005CC000005AC000005C
:1000300058C0000056C0000054C0000052C000006C
:1000400050C000004EC000004CC000004AC000007C
:1000500048C0000046C0000044C0000042C000008C
:1000600040C000003EC000003CC000003AC000009C
:1000700038C0000036C0000034C0000032C00000AC
:1000800030C000002EC000002CC000002AC00000BC
:1000900028C0000026C0000024C0000022C00000CC
:1000A00020C000001EC000001CC0000011241FBEA4
:1000B000CFEFDAE0DEBFCDBF11E0A0E0B1E0EEE6C9
:1000C000F7E002C005900D92AC31B107D9F721E0FD
:1000D000ACE1B1E001C01D92A832B207E1F79CD1BA
:1000E00044C38ECFE9E6F0E080818A6A80838DB3D5
:1000F0008F608DBB089582E390E05E9AEFEEFAE0A8
:100100003197F1F700C000002BB11BB8EFEEFAE019
:100110003197F1F700C00000019779F7089588EE54
:1001200093E05E9AEFEEFAE03197F1F700C000003D
:100130002BB11BB8EFEEFAE03197F1F700C00000E9
:10014000019779F70895A8E0B0E0E8EAF0E030C25E
:1001500028E0E4E1F1E0DE01119601900D922A958C
:10016000E1F78C01000F111FC801845E9E4F7C01D6
:10017000FC0180819181892B21F125B1E1E0F0E042
:10018000EC0FFD1FE00FF11F81E090E0008002C046
:10019000880F991F0A94E2F78095822385B9809190
:1001A00026019091270101969093270180932601C3
:1001B000A2DFF70111821082F801EA5FFE4F11827F
:1001C00010822896E6E010C21F920F920FB60F928F
:1001D00011242F933F934F935F936F937F938F934C
:1001E0009F93AF93BF93EF93FF9380E090E0ABDFDB
:1001F000FF91EF91BF91AF919F918F917F916F91FF
:100200005F914F913F912F910F900FBE0F901F90D4
:1002100018951F920F920FB60F9211242F933F93B0
:100220004F935F936F937F938F939F93AF93BF93FE
:10023000EF93FF9381E090E086DFFF91EF91BF9114
:10024000AF919F918F917F916F915F914F913F916E
:100250002F910F900FBE0F901F9018951F920F9225
:100260000FB60F9211242F933F934F935F936F9389
:100270007F938F939F93AF93BF93EF93FF9382E00E
:1002800090E061DFFF91EF91BF91AF919F918F91CE
:100290007F916F915F914F913F912F910F900FBE82
:1002A0000F901F9018951F920F920FB60F92112466
:1002B0002F933F934F935F936F937F938F939F936E
:1002C000AF93BF93EF93FF9383E090E03CDFFF9108
:1002D000EF91BF91AF919F918F917F916F915F91BE
:1002E0004F913F912F910F900FBE0F901F90189537
:1002F0009C01220F331FF901E45EFE4F41E050E004
:10030000518340834091100150911101F901EA5F3E
:10031000FE4F518340838130910561F01CF4892B9D
:1003200039F008958230910539F0039739F0089536
:100330002F9A08952E9A08952D9A08952C9A08952B
:100340008130910569F024F4009769F42F980BC06F
:100350008230910539F08330910529F42C9803C03F
:100360002E9801C02D9820912401309125012F5FF6
:100370003F4F3093250120932401880F991FFC01E2
:10038000E45EFE4F118210820895809112019091D7
:10039000130183309105B1F038F48130910559F0A3
:1003A0000297A1F4469811C08530910559F028F0C4
:1003B000069759F00BC0469A09C0769888B1806CB0
:1003C00088B904C04798769A01C0479A8091120173
:1003D00090911301019690931301809312018091E3
:1003E0000E0190910F018659910990930F0180930E
:1003F0000E018091100190911101865991099093FD
:10040000110180931001089585B1806F85B987DE51
:1004100085B18F7085B908950F931F93CF93DF93A4
:10042000F8948FEF84B915B887B1806C87B96E9A4C
:1004300018B81EB8569A56DE78942FEF8BE792E9DB
:10044000215080409040E1F700C0000023D164E0DB
:1004500070E08FD04DDF0FE010E08FE99FE0019753
:10046000F1F700C00000C0E0D0E0FE01EE0FFF1F7A
:10047000DF01A45EBE4F8D919C91EA5FFE4F892BF8
:1004800061F0808191810197918380838081918146
:10049000892B29F4CE0154DF02C0118210822196EB
:1004A000C430D10511F780910401909105010197A5
:1004B00090930501809304018091040190910501BE
:1004C000892BA9F4E7D0BE0154D0FC01EE0FFF1F29
:1004D000E45EFE4F20813181232B09F409DF8091F6
:1004E0000E0190910F01909305018093040180917A
:1004F000260190912701892BC9F0809126019091C6
:100500002701B80122D0892B89F48091260190918E
:1005100027018A36910550F4809126019091270198
:10052000019690932701809326012FDF809124016B
:10053000909125010F9708F490CF66DF80E090E05E
:10054000DF91CF911F910F910895AA1BBB1B51E121
:1005500007C0AA1FBB1FA617B70710F0A61BB70B33
:10056000881F991F5A95A9F780959095BC01CD01D8
:10057000089597FB072E16F4009406D077FD08D057
:10058000E4DF07FC05D03EF4909581959F4F0895D8
:10059000709561957F4F08952F923F924F925F9291
:1005A0006F927F928F929F92AF92BF92CF92DF9283
:1005B000EF92FF920F931F93CF93DF93CDB7DEB7E8
:1005C000CA1BDB0B0FB6F894DEBF0FBECDBF09947C
:1005D0002A88398848885F846E847D848C849B84D3
:1005E000AA84B984C884DF80EE80FD800C811B81E1
:1005F000AA81B981CE0FD11D0FB6F894DEBF0FBE10
:10060000CDBFED0108958F929F92AF92BF92CF928E
:10061000DF92EF92FF92CF93DF93EC0168817981B3
:100620008A819B81611571058105910521F464E240
:1006300079ED8BE597E02DE133EF41E050E038D0E4
:1006400049015A019B01AC01A7EAB1E44DD06B010D
:100650007C01ACEEB4EFA501940152D0DC01CB01DA
:100660008C0D9D1DAE1DBF1DB7FF03C00197A109D5
:10067000B04888839983AA83BB839F77DF91CF910A
:10068000FF90EF90DF90CF90BF90AF909F908F90B2
:100690000895B9CF80E091E0B6CFA0E0B0E08093BC
:1006A000000190930101A0930201B093030108950A
:1006B000052E97FB16F400940FD057FD05D024D0DB
:1006C00007FC02D046F408C050954095309521951E
:1006D0003F4F4F4F5F4F089590958095709561956E
:1006E0007F4F8F4F9F4F089531D0A59F900DB49F9E
:1006F000900DA49F800D911D11240895B7FFF4CF94
:10070000F3DF821B930B0895A1E21A2EAA1BBB1BD9
:10071000FD010DC0AA1FBB1FEE1FFF1FA217B307CD
:10072000E407F50720F0A21BB30BE40BF50B661FE3
:10073000771F881F991F1A9469F7609570958095A7
:1007400090959B01AC01BD01CF010895A29FB0011E
:10075000B39FC001A39F700D811D1124911DB29FF5
:0E076000700D811D1124911D0895F894FFCF96
:10076E0001000000B004B004B004B004B004B00442
:0C077E00B00401000700060005000400A4
:00000001FF
